:100000000C94BD110C94E5110C94E5110C94E511C0
:100010000C94E5110C94E5110C94E5110C94E51188
:100020000C94E5110C94E5110C94E5110C945C14FE
:100030000C94E5110C94E5110C94E5110C94E51168
:100040000C9407140C94E5110C94E5110C94E51133
:100050000C94E5110C94E5110C94E5110C94E51148
:100060000C94E5110C94E511281F000000200000FD
:10007000000050000000005C000000005E00000076
:100080000FEE7C000010CF82000010FE82000009FD
:100090006E8400000D0EDC0000070EF807C00FFF95
:1000A000FC1FFFF401FC1C00040FF807FFFC19CC37
:1000B00007FFFFF00603FFFFF806000001FFFC004A
:1000C0000000FFF800000380400000063F20000011
:1000D000084310000008211000000BE1B8000007E1
:1000E000E1F8000003E1F8000003C0F0000005C0E3
:1000F00090000006616800000FE1F8000010110890
:1001000000001FF1F8281F00000020000000005030
:10011000000000005C000000005E0000000FEE7CAC
:10012000000010CF82000010FE820000096E8400E3
:10013000000D0EDC0000070EF80F801FFFFE3FFFD2
:10014000E803F83800081FF00FFFF833980FFFFF9F
:10015000E00E07FFFFF00C000003FFF8000001FFB6
:10016000F000000380400000063F2000000843101C
:10017000000008211000000BE1B8000007E1F800C2
:100180000003E1F8000003C0F0000005C09000008B
:1001900006616800000FE1F8000010110800001F60
:1001A000F1F8281F000000200000000050000000AF
:1001B000005C000000005E0000000FEE7C000010FC
:1001C000CF82000010FE820000096E8400000D0E38
:1001D000DC0000070EF83E007FFFFCFFFFA00FE2EF
:1001E000E000207FC23FFFE0CE623FFFFF803C1F68
:1001F000FFFFC03000000FFFE0000007FFC000005D
:100200000380400000063F20000008431000000863
:10021000211000000BE1B8000007E1F8000003E145
:10022000F8000003C0F0000005C0900000066168FF
:1002300000000FE1F8000010110800001FF1F8584D
:100240003600000000000000000000000000000078
:10025000000000000000000000000000000000FF9F
:10026000E3FE0000000000000001FFF7FF000000B7
:100270000000000007FFFFFF0000003FFE00001C21
:10028000FFFFBF000002FFFF80003F01FFBF000033
:1002900001FFFFE0007FFC7FDF00002BFFFFFFFF7F
:1002A000FFFF1FEF000087EFFFFFFFFFFF9FE7004B
:1002B000080FEFFFFFFFFFFFCFF300003FFFFFFF3F
:1002C000FFFFFFE7F9FFFFFFFFFFFFFFFFFFF7F86B
:1002D000000007FFFFFFFFFFFFF3FEFFFFFEFFFF32
:1002E000FFFFFFFFFBFF0000007FFFFFFFFFFFFBA3
:1002F000FFFFFFFF9FFFFFFFFFFF83FF0000000FD7
:10030000FFFFFFFFF83FFFFFFFFF9FFFFFFFFF879C
:10031000FFFF0000003FFFFFFFF87FFFFF0000002E
:10032000FFFCFFFFF7FFFFFFFFFFFFFFC000003FE5
:10033000FFFFFF000087F800000039FFFFFF00000B
:1003400010800000003EFFFFFF000004400000009E
:100350003F807FFF000002000000003FFF9FFF0082
:100360000000000000003FFFEFFF00000000000061
:10037000003FFFF3FF000000000000007FFFF9FFD7
:10038000000000000000007FFFFE7F000000000072
:1003900000007BFFFF3F00000000000000FDFFFFAA
:1003A000CF00000000000001FCFFFFFB0000000088
:1003B000000001FEFFFFFF00000000000001FE7FC3
:1003C000FFFF00000000000003FE7FFFFF000000B1
:1003D00000000003FF3FFFFF000000000000037F5C
:1003E0001FFFFF00000000000007BF8FFFFF00009D
:1003F0000000000007BFC7FFFF000000000000076B
:10040000DFF3FFFF0000000000000FCFFDFFFF0043
:1004100000000000001FE7FF7FFF00000000000059
:100420001FE7FFC7FF0000000000001FF3FFF87F79
:100430000000000000001FF9FFFFFF0000000000A7
:10044000001FFCFFFFFF0000000000001FFE7FFFF9
:10045000FF0000000000001FFF3FFFFF0000000042
:1004600000000FFFFFFFFF00000000000007FFFF7C
:10047000FFFF00000000000003FFE0FFFF0000009E
:1004800000000001FFC000FC00000000000000FFB1
:100490000000785836000000000000000000000056
:1004A000000000000000000000000000000000004C
:1004B000000000FFE3FE0000000000000001FFF765
:1004C000FF0000000000000007FFFFFF0000000029
:1004D0000000001CFFFFBF000000000000003F0103
:1004E000FFBF000000000000007FFC7FDF00000075
:1004F00000000003FFFF1FEF0000003FFE001FFF92
:10050000FF9FE7000004FFFFFFFFFFFFCFF30000A6
:1005100021FFFFFFFFFFFFE7F9000003FFFFFFFFE1
:10052000FFFFF7F8000087EFFFFFFFFFFFF3FE007C
:10053000000FEFFFFFFFFFFFFBFF00003FFFFFFF8C
:10054000FFFFFFFBFFFFFFFFFFFFFFFFFFFF83FF3B
:10055000000007FFFFFFFFFFF83FFF000000FFFF65
:10056000FFFFFF87FFFFFFFFFE7FFFFFFFF87FFF1B
:10057000FF0000001FFFFFFFF7FFFFFFFFFFFF8FE0
:10058000FFFFFFFFFFFFFF0000001FFFFFFE09FF4F
:10059000FFFFFFFFFE3FFFFF003EFFFFFF000000E9
:1005A000FFFCC0003F807FFFFFFFFFFFC000003F58
:1005B000FF9FFF000087F80000003FFFEFFF0000F3
:1005C00004000000003FFFF3FF0000412000000096
:1005D0007FFFF9FF00000A400000007FFFFE7F0060
:1005E0000000000000007BFFFF3F00000000000053
:1005F00000FDFFFFCF00000000000001FCFFFFFB3B
:1006000000000000000001FEFFFFFF0000000000EE
:100610000001FE7FFFFF00000000000003FE7FFFDF
:10062000FF00000000000003FF3FFFFF000000008C
:100630000000037F1FFFFF00000000000007BF8FC6
:10064000FFFF00000000000007BFC7FFFF00000021
:1006500000000007DFF3FFFF0000000000000FCFE5
:10066000FDFFFF0000000000001FE7FF7FFF00000C
:10067000000000003FE7FFC7FF0000000000007F10
:10068000F3FFF87F000000000000FFF9FFFFFF000C
:100690000000000000FFFCFFFFFF00000000000062
:1006A000FFFE7FFFFF000000000000FFFE7FFFFF56
:1006B000000000000000FFFFFFFFFF00000000003F
:1006C00001FFFFFFFFFC000000000001FFFFE0FF53
:1006D000E0000000000001FFFE007FC000000000FD
:1006E0000000FFF0003F005836000000000000004E
:1006F00000000000000000000000000000000000FA
:1007000000000000000000FFE3FE00000000000009
:100710000001FFF7FF0000000000000007FFFFFFDF
:10072000000000000000001CFFFFBF0000000000F0
:1007300000003F01FFBF000000000000007FFC7FC1
:10074000DF00000000000001FFFF1FEF00000000BD
:10075000000003FFFF9FE700000000000007FFFF0D
:10076000CFF30000000000001FFFFFE7F9000000CA
:100770000000003FFFFFF7F8000000000000FFFF4F
:10078000FFF3FE000000000003FFFFFFFBFF00007F
:10079000003FFE03FFFFFFFBFF000000FFFFFFFF26
:1007A000FFFF83FF000021FFFFFFFFFFF83FFF0077
:1007B000000BFFFFFFFFFF87FFFF000097EFFFFF2A
:1007C000FFF87FFFFF00005FEFFFFFFFF7FFFFFF76
:1007D00000007FFFFFFFFFFFFFFFFFFFFFFFFFFFA7
:1007E000FFFFF9FFFFFF000007FFFFFFFFBEFFFF56
:1007F000FF000000FFFFFFFF3F807FFFFFFFFE7F46
:10080000FFFFFE3FFF9FFF0000001FFFFFFC3FFFB9
:10081000EFFFFFFFFF8FFFFFF03FFFF3FF00000040
:100820001FFFFF807FFFF9FFFFFFFE3FFFC0007F3C
:10083000FFFE7F000000FFFC00007BFFFF3FFFFF8B
:10084000FFFFC00000FDFFFFCF000027F800000100
:10085000FCFFFFFB00008A40000001FEFFFFFF00DD
:10086000008120000001FE7FFFFF0000000000006B
:1008700003FE7FFFFF00000000000003FF3FFFFFBB
:10088000000000000000037F1FFFFF0000000000C9
:100890000007BF8FFFFF00000000000007BFC7FF79
:1008A000FF00000000000007DFF3FFFF0000000072
:1008B00000000FCFFDFFFF0000000000001FE7FF5A
:1008C0007FFF0000000000001FE7FFC7FF000000DF
:1008D0000000001FF3FFF87F0000000000001FF978
:1008E000FFFFFF0000000000001FFCFFFFFF0000F3
:1008F000000000001FFE7FFFFF0000000000001F3F
:10090000FF3FFFFF0000000000007FFFFFFFFF0030
:100910000000000001FFFFFFFFFF000000000001DA
:10092000FFFFC07FFE000000000003FFFF007FF01C
:10093000000000000003FFF8007FC05836000000F0
:1009400000000000000000000000000000000000A7
:100950000000000000000000000000FFE3FE0000B7
:10096000000000000001FFF7FF0000000000000091
:1009700007FFFFFF000000000000001CFFFFBF009A
:100980000000000000003F01FFBF00000000000069
:10099000007FFC7FDF00000000000001FFFF1FEF71
:1009A00000000000000003FFFF9FE70000000000C0
:1009B0000007FFFFCFF30000000000001FFFFFE76C
:1009C000F90000000000003FFFFFF7F80000000002
:1009D0000000FFFFFFF3FE000000000003FFFFFF29
:1009E000FBFF0000003FFE03FFFFFFFBFF000000D6
:1009F000FFFFFFFFFFFF83FF000001FFFFFFFFFF7F
:100A0000F83FFF000013FFFFFFFFFF87FFFF00001D
:100A100097EFFFFFFFF87FFFFF0000DFEFFFFFFF13
:100A2000F7FFFFFF00017FFFFFFFFFFFFFFFFFFF5B
:100A3000FFFFFFFFFFFFF9FFFFFF000007FFFFFFC2
:100A4000FFBEFFFFFFFFFFF8FFFFFFFF3F807FFFBD
:100A50000000007FFFFFFE3FFF9FFFFFFFFC1FFF27
:100A6000FFFC3FFFEFFF0000000FFFFFF03FFFF331
:100A7000FFFFFFFF9FFFFF807FFFF9FF0000003FA8
:100A8000FFC0007FFFFE7F000000FFFC00007BFF37
:100A9000FF3FFFFFFFFFC00000FDFFFFCF0000276B
:100AA000F8000001FCFFFFFB00001A00000001FE3F
:100AB000FFFFFF00001200000001FE7FFFFF0000AB
:100AC0008000000003FE7FFFFF0000000000000325
:100AD000FF3FFFFF000000000000037F1FFFFF003B
:100AE000000000000007BF8FFFFF000000000000B3
:100AF00007BFC7FFFF00000000000007DFF3FFFF94
:100B00000000000000000FCFFDFFFF00000000000C
:100B1000001FE7FF7FFF0000000000003FE7FFC766
:100B2000FF0000000000007FF3FFF87F00000000DE
:100B300000007FF9FFFFFF0000000000007FFCFFC6
:100B4000FFFF000000000000FFFE7FFFFF0000002D
:100B5000000000FFFFBFFFFF000000000000FFFFDC
:100B6000FFFFFF000000000000FFFFFFFFFF00008D
:100B7000000000007FFFC07FFE0000000000007F3B
:100B8000FC003FF00000000000007FF8003FC0586C
:100B9000360000000000000000000000000000001F
:100BA000000000000000000000000000000000FF46
:100BB000E3FE0000000000000001FFF7FF0000005E
:100BC0000000000007FFFFFF000000000000001C05
:100BD000FFFFBF000000000000003F01FFBF00005A
:100BE00000000000007FFC7FDF000000000000012B
:100BF000FFFF1FEF00000000000003FFFF9FE70062
:100C0000000000000007FFFFCFF30000000000001D
:100C10001FFFFFE7F90000000000003FFFFFF7F8AB
:100C2000000000000000FFFFFFF3FE0000000000D6
:100C300003FFFFFFFBFF0000003FFE03FFFFFFFB82
:100C4000FF000000FFFFFFFFFFFF83FF000001FF29
:100C5000FFFFFFFFF83FFF000003FFFFFFFFFF87DD
:100C6000FFFF000007EFFFFFFFF87FFFFF00000F0F
:100C7000EFFFFFFFF7FFFFFF00001FFFFFFFFFFF7A
:100C8000FFFFFF00001FFFFFFFFFF9FFFFFF000056
:100C900007FFFFFFFFBEFFFFFF000001FFFFFFFF99
:100CA0003F807FFF0000007FFFFFFE3FFF9FFF00B0
:100CB00000001FFFFFFC3FFFEFFF0000000FFFFFE2
:100CC000F03FFFF3FF0000001FFFFF807FFFF9FFF1
:100CD0000000007FFFC0007FFFFE7F000001FFFCDF
:100CE00000007BFFFF3F000007FFC00000FDFFFF8B
:100CF000CF000007F8000001FCFFFFFB0000000030
:100D0000000001FEFFFFFF00000000000001FE7F69
:100D1000FFFF00000000000003FE7FFFFF00000057
:100D200000000003FF3FFFFF000000000000037F02
:100D30001FFFFF00000000000007BF8FFFFF000043
:100D40000000000007BFC7FFFF0000000000000711
:100D5000DFF3FFFF0000000000000FCFFDFFFF00EA
:100D600000000000001FE7FF7FFF00000000000000
:100D70001FE7FFC7FF0000000000001FF3FFF87F20
:100D80000000000000003FF9FFFFFF00000000002E
:100D9000003FFCFFFFFF0000000000007FFE7FFF20
:100DA000FF000000000000FFFFFFFFFF0000000049
:100DB0000003FFFFFFFFFF000000000003FFFF80B4
:100DC000FFFC000000000007FFFE00FFE000000045
:100DD000000007FFF000FF80000000000003FF009C
:100DE000007F0058360000000000000000000000F6
:100DF00000000000000000000000000000000000F3
:100E0000000000FFE3FE0000000000000001FFF70B
:100E1000FF0000000000000007FFFFFF00000000CF
:100E20000000001CFFFFBF000000000000003F01A9
:100E3000FFBF00000000000000FFFC7FDF0000009B
:100E40000000001FFFFF1FEF0000003FFE03FFFF39
:100E5000FF9FE7000000FFFFDFFFFFFFCFF3000071
:100E600001FFFFFFFFFFFFE7F9000003FFFFFFFFA8
:100E7000FFFFF7F8000007EFFFFFFFFFFFF3FE00A3
:100E8000000FEFFFFFFFFFFFFBFF00001FFFFFFF53
:100E9000FFFFFFFBFF00001FFFFFFFFFFFFF83FFC0
:100EA000000007FFFFFFFFFFF83FFF000001FFFF0B
:100EB000FFFFFF87FFFF0000007FFFFFFFF87FFFBE
:100EC000FF0000001FFFFFFFF7FFFFFF0000000F04
:100ED000FFFE07FFFFFFFF0000001FFFF80079FF84
:100EE000FFFF0000007FFFC0003EFFFFFF0000018A
:100EF000FFFC00003F807FFF000007FFC000003FB5
:100F0000FF9FFF000007F80000003FFFEFFF000019
:100F100000000000003FFFF3FF00000000000000A1
:100F20007FFFF9FF000000000000007FFFFE7F0050
:100F30000000000000007BFFFF3F000000000000F9
:100F400000FDFFFFCF00000000000001FCFFFFFBE1
:100F500000000000000001FEFFFFFF000000000095
:100F60000001FE7FFFFF00000000000003FE7FFF86
:100F7000FF00000000000003FF3FFFFF0000000033
:100F80000000037F1FFFFF00000000000007BF8F6D
:100F9000FFFF00000000000007BFC7FFFF000000C8
:100FA00000000007DFF3FFFF0000000000000FCF8C
:100FB000FDFFFF0000000000001FE7FF7FFF0000B3
:100FC000000000003FE7FFC7FF0000000000007FB7
:100FD000F3FFF87F000000000000FFF9FFFFFF00B3
:100FE0000000000000FFFCFFFFFF00000000000009
:100FF000FFFE7FFFFF000000000000FFFFFFFFFF7C
:10100000000000000001FFFFFFFFFC0000000000E7
:1010100001FFFFE0FFE0000000000001FFFE007F95
:10102000C0000000000000FFF0003F0000000000D2
:1010300000007800001E005836000000000000008C
:1010400000000000000000000000000000000000A0
:1010500000000000000000FFE3FE00000003FFE0CE
:101060000001FFF7FF0000000FFFF80007FFFFFF80
:101070000000001FFFFFE01CFFFFBF0000003FFF5C
:10108000FFFFFF01FFBF0000007EFFFFFFFFFC7FAF
:10109000DF000000FEFFFFFFFFFF1FEF000001FF6A
:1010A000FFFFFFFFFF9FE7000001FFFFFFFFFFFFC4
:1010B000CFF30000007FFFFFFFFFFFE7F900000014
:1010C0001FFFFFFFFFFFF7F800000007FFFFFFFF14
:1010D000FFF3FE00000001FFFFFFFFFFFBFF00002A
:1010E0000000FFFFFFFFFFFBFF00000001FFFFFF0D
:1010F000FFFF83FF00000007FFFFFFFFF83FFF0037
:1011000000001FFFFFFFFF87FFFF0000007FFFFFC2
:10111000FFF87FFFFF0000007F800000F7FFFFFF68
:10112000000000000000007FFFFFFF000000000043
:10113000000039FFFFFF000000000000003EFFFF3D
:10114000FF000000000000003F807FFF0000000063
:101150000000003FFF9FFF000000000000003FFF75
:10116000EFFF000000000000003FFFF3FF00000061
:10117000000000007FFFF9FF000000000000007F7A
:10118000FFFE7F000000000000007BFFFF3F00002B
:101190000000000000FDFFFFCF0000000000000184
:1011A000FCFFFFFB00000000000001FEFFFFFF004E
:1011B000000000000001FE7FFFFF000000000000B3
:1011C00003FE7FFFFF00000000000003FF3FFFFF62
:1011D000000000000000037F1FFFFF000000000070
:1011E0000007BF8FFFFF00000000000007BFC7FF20
:1011F000FF00000000000007DFF3FFFF0000000019
:1012000000000FCFFDFFFF0000000000001FE7FF00
:101210007FFF0000000000003FE7FFC7FF00000065
:101220000000007FF3FFF87F000000000000FFF9DE
:10123000FFFFFF000000000000FFFCFFFFFF0000B9
:1012400000000000FFFE7FFFFF0000000000007FA5
:10125000FF3FFFFF0000000000007FFFFFFFFF00D7
:1012600000000000007FFFFFFFFC00000000000006
:101270003FFFE0FFF80000000000001FFE003FF805
:101280000000000000000FF00001F05836000000E0
:10129000000000000000000000000000000000004E
:1012A0000000000000000000000000FFE3FE00005E
:1012B000000000000001FFF7FF00000003FF000036
:1012C00007FFFFFF0000000FFFFC001CFFFFBF0037
:1012D00000001FFFFFFFFF01FFBF0000003EFFFFF8
:1012E000FFFFFC7FDF0000007EFFFFFFFFFF1FEF1F
:1012F000000000FFFFFFFFFFFF9FE7000000FFFF70
:10130000FFFFFFFFCFF3000000FFFFFFFFFFFFE73E
:10131000F90000007FFFFFFFFFFFF7F80000000764
:10132000FFFFFFFFFFF3FE00000001FFFFFFFFFFD5
:10133000FBFF00000000FFFFFFFFFFFBFF000000BE
:1013400001FFFFFFFFFF83FF0000001FFFFFFFFF04
:10135000F83FFF0000007FFFFFFFFF87FFFF000057
:10136000007FFFFFFFF87FFFFF000000000000008C
:10137000F7FFFFFF000000000000007FFFFFFF00FD
:1013800000000000000039FFFFFF00000000000027
:10139000003EFFFFFF000000000000003F807FFFD5
:1013A000000000000000003FFF9FFF000000000061
:1013B00000003FFFEFFF000000000000003FFFF3D0
:1013C000FF000000000000007FFFF9FF00000000A8
:1013D0000000007FFFFE7F000000000000007BFF98
:1013E000FF3F00000000000000FDFFFFCF000000F5
:1013F00000000001FCFFFFFB00000000000001FEF8
:10140000FFFFFF00000000000001FE7FFFFF000063
:101410000000000003FE7FFFFF000000000000034B
:10142000FF3FFFFF000000000000037F1FFFFF00E1
:10143000000000000007BF8FFFFF00000000000059
:1014400007BFC7FFFF00000000000007DFF3FFFF3A
:101450000000000000000FCFFDFFFF0000000000B3
:10146000001FE7FF7FFF0000000000003FE7FFC70D
:10147000FF0000000000003FF3FFF87F00000000C5
:1014800000003FF9FFFFFF0000000000003FFCFFED
:10149000FFFF0000000000001FFE7FFFFF000000B4
:1014A0000000001FFF3FFFFF0000000000000FFFD3
:1014B000FFFFFF00000000000007FFFFFFFC00002F
:1014C0000000000003FFE0FFFC000000000000013E
:1014D000FFC000FC00000000000000FF0000785882
:1014E00036000000000000000000000000000000C6
:1014F000000000000000000000000000000000FFED
:10150000E3FE0000000000000001FFF7FF00000004
:101510000000000007FFFFFF0000000001FF801C2B
:10152000FFFFBF0000000007FFFFFF01FFBF00003B
:1015300000001FFFFFFFFC7FDF000000003F7FFF78
:10154000FFFF1FEF000000007F7FFFFFFF9FE7000E
:101550000000007FFFFFFFFFCFF300000000FFFF50
:10156000FFFFFFE7F900000000FFFFFFFFFFF7F8B4
:10157000000000000FFFFFFFFFF3FE00000000006F
:10158000FFFFFFFFFBFF00000000007FFFFFFFFBEE
:10159000FF0000000000FFFFFFFF83FF00000000CE
:1015A00007FFFFFFF83FFF000000003FFFFFFF873E
:1015B000FFFF000000007FFFFFF87FFFFF0000003B
:1015C000007E0000F7FFFFFF000000000000007F2A
:1015D000FFFFFF0000000000000039FFFFFF0000D8
:1015E00000000000003EFFFFFF00000000000000C0
:1015F0003F807FFF000000000000003FFF9FFF00D2
:101600000000000000003FFFEFFF000000000000AE
:10161000003FFFF3FF000000000000007FFFF9FF24
:10162000000000000000007FFFFE7F0000000000BF
:1016300000007BFFFF3F00000000000000FDFFFFF7
:10164000CF00000000000001FCFFFFFB00000000D5
:10165000000001FEFFFFFF00000000000001FE7F10
:10166000FFFF00000000000003FE7FFFFF000000FE
:1016700000000003FF3FFFFF000000000000037FA9
:101680001FFFFF00000000000007BF8FFFFF0000EA
:101690000000000007BFC7FFFF00000000000007B8
:1016A000DFF3FFFF0000000000000FCFFDFFFF0091
:1016B00000000000001FE7FF7FFF000000000000A7
:1016C0003FE7FFC7FF0000000000007FF3FFF87F47
:1016D000000000000000FFF9FFFFFF000000000015
:1016E00000FFFCFFFFFF000000000000FFFE7FFF87
:1016F000FF000000000000FFFE7FFFFF0000000071
:101700000000FFFFFFFFFF000000000000FFFFFFE1
:10171000FFF80000000000007FFFC1FFF0000000A4
:101720000000003FFC007FF00000000000001FE010
:101730000003E05836000000000000000000000038
:101740000000000000000000000000000000000099
:10175000000000FFE3FE0000000000000001FFF7B2
:10176000FF0000000000000007FFFFFF0000000076
:101770000003FF04FFFFBF00000000000FFFFF0198
:10178000FFBF00000000003FFFFFFC7FDF00000004
:1017900000007EFFFFFF1FEF0000000000FEFFFFC4
:1017A000FF9FE70000000000FFFFFFFFCFF30000F6
:1017B000000001FFFFFFFFE7F90000000001FFFF4D
:1017C000FFFFF7F80000000001FFFFFFFFF3FE003E
:1017D0000000000001FFFFFFFBFF00000000000011
:1017E000FFFFFFFBFF000000000007FFFFFF83FF7C
:1017F00000000000007FFFFFF83FFF000000000036
:10180000FFFFFF87FFFF00000000007FFFF87FFF62
:10181000FF0000000000000017FFFFFF00000000B5
:101820000000001FFFFFFF0000000000000019FF84
:10183000FFFF000000000000001EFFFFFF0000008F
:10184000000000001F807FFF000000000000001F5C
:10185000FF9FFF000000000000001FFFEFFF0000DF
:1018600000000000003FFFF3FF0000000000000048
:101870003FFFF9FF000000000000007FFFFE7F0037
:101880000000000000007BFFFF3F000000000000A0
:1018900000FDFFFFCF00000000000001FCFFFFFB88
:1018A00000000000000001FEFFFFFF00000000003C
:1018B0000001FE7FFFFF00000000000003FE7FFF2D
:1018C000FF00000000000003FF3FFFFF00000000DA
:1018D0000000037F1FFFFF00000000000007BF8F14
:1018E000FFFF00000000000007BFC7FFFF0000006F
:1018F00000000007DFF3FFFF0000000000000FCF33
:10190000FDFFFF0000000000001FE7FF7FFF000059
:10191000000000003FE7FFC7FF0000000000007F5D
:10192000F3FFF87F000000000000FFF9FFFFFF0059
:101930000000000000FFFCFFFFFF000000000000AF
:10194000FFFE7FFFFF000000000001FFFFFFFFFF21
:10195000000000000003FFFFFFFFF8000000000090
:1019600003FFFFC1FFC0000000000003FFFC00FFF9
:1019700080000000000001FFE0007E000000000089
:101980000000F000003C00100AFF8007C01FE03F8D
:10199000F043C043C03FF01FE003C0FF80100A00C7
:1019A00000FFC03FE07FF043C07FF03FE0FFC0009A
:1019B000000000100AFF8007C01FE03FF043C04353
:1019C000C03FF01FE003C0FF80100B00000000606C
:1019D000007C00FF00FFFEFF01C7FFC1FE7FFC008F
:1019E00000100B8000E0007800FFFEFF01C7FFC180
:1019F000FFFFFE7FF800000000100B400060007841
:101A000000FF00FFFEFF01C7FFC1FE7FC007F80017
:101A100000180A0FC000307E00486180A86040A511
:101A2000A0408DC340800040B80EC0EFFBC07FFFD8
:101A300080180E003000FFE800803C00803F0080EE
:101A40002D80D17C80800C8089B4809DB8808801F5
:101A500080B01C80A81580FFFF807FFF00180C015C
:101A6000800006C000793F80E9B7C0E833C0E6D700
:101A7000C0EEEFC0910940F92FC0FD0FC0EFFDC0CF
:101A80007FFF80180C03E0000230007E3F008231AF
:101A900080BE3080BE3080BED18080E080800080FB
:101AA000B81D80EFF7807FFF00180A07E0007C3F39
:101AB000808C3040EC3D40EBFD40873040FFFFC064
:101AC000FFFFC0EFFDC07FFF8018066C6C6CBEBED0
:101AD000BEFEFEFE7C7C7C38383810101018066C78
:101AE0006C00BEBE00FEFE007C7C0038380010108A
:101AF0000018066C0000BE0000FE00007C000038EC
:101B00000000100000180600000039CCE01512504B
:101B1000159E5039D2E0000000583000000000004F
:101B200000000000000000000000000000000000B5
:101B300000000000000000000000000000000000A5
:101B40000000000000000000000000000000000095
:101B50000000000000000000000000000000000085
:101B60000000000000000000000000000000000075
:101B70000000000000000000000000000000000065
:101B80000000000000000000000000000000000055
:101B90000000000000000000000000000000000045
:101BA0000000000000000000000000000000000035
:101BB0000000000000000000000000000000000025
:101BC0000000000000000000000000000000000015
:101BD0000000000000000000000000000000000005
:101BE00000000000000000000000000000000000F5
:101BF0000000000000000000078F30DF01F18DF3CE
:101C0000E000000FCF39DF03F98DF3F00000000092
:101C10000000000000000000001C19BFD803198D4F
:101C2000F33000001DDFB6DF03199DF3E000001C58
:101C3000DFB6D8031999833000000FD9B6DF03F956
:101C4000F9F33000000799B0DF01F0F1F330000044
:101C50000000000000000000000000000000000084
:101C60000000000000000000000000000000000074
:101C70000000000000000000000000000000000064
:101C80000000000000000000000000000000000054
:101C90000000000000000000000000000000000044
:101CA0000000000000000000000000000000000034
:101CB0000000000000000000000000000000000024
:101CC0000000000000000000000000000000000014
:101CD0000000000000000000000000000000000004
:101CE00000000000000000000000000000000000F4
:101CF00000000000000000000000000000000000E4
:101D000000000000000000000000000000000000D3
:101D100000000000000000000000000000000000C3
:101D20000000000000000000000000180E10040079
:101D30003258001B3F004E7A0016D1805B33004FB3
:101D4000E7006CDF003F7A002FEA808B9500E527E3
:101D50008035EE00066800281F08804384000CC010
:101D6000A48F040448989E4C0460DC9018026D3CDB
:101D7000386843217F28F023307C35F083D27C56AD
:101D8000E043522C0FC042B32C0D88087304198015
:101D9000A073321B000272353E08577B3D5290A75C
:101DA0001D683230E387F838309286B038E075C16C
:101DB00020B0C20BCE08A180058F3A668005A782AD
:101DC0000F8282E501051A01C7C5143610C7D41C5D
:101DD0003C0873C838F01E33983BF203339933E064
:101DE00001F1DA57C4207FF3F780017E721790006B
:101DF0002FFFFF000807144A160E164A1410053E5E
:101E0000004100808041003E0008033CC23C080ABB
:101E10008810A248A0C0A048A2101004C488AAA894
:101E2000CAA88450580A000000000000000000000A
:101E300000000000000000000000000000000000A2
:101E4000000000000000004000100004000100003D
:101E50004000800020000800020000800080002078
:101E60000008000200008000FFFFFFFFFFFFFFFFF0
:101E7000FFFFFF0000000000000000000000000065
:101E80000000000000000000000000000000000052
:101E900000000000581B0F00000000001FFFFC00A6
:101EA000007FFE0000001FFFFFFF8078FFFF001F84
:101EB000FFFFFFF003F3FC00FFFFFFFFFFFF801FAA
:101EC000FFFEFFFFFFFFFFFFFFFFFFFFFFFFFFFF23
:101ED000FFFC000FFFFFFFFFF07FFF800000001FEF
:101EE000FFFFFF80003F0003FFE00000007F003F96
:101EF000F8000FFFFE0000003F07FFE007FFFFFFB5
:101F00008000007F1FFFC1FFFFF807E0F807FE7F9A
:101F1000C003FFFCF001FFFFFFFEFFC07FFFE0FFFB
:101F2000FFFFFFFFF8C003FFFF003FFFFFFFFFF0D1
:101F3000000FF0000000007FE1FFC0000000000083
:101F40000000000000000000000000000000000091
:101F50000000000000000000000000000000000081
:101F60000000000000000000000000000000000071
:101F70000000000000000000000000000000000061
:101F80000000000000000000000000000000000051
:101F90000000000000000000000000000000000041
:101FA0000000000000000000000000000000000031
:101FB00000000000000000000000000000000058C9
:101FC0000A000000000000F8001F000000000000F0
:101FD0001F010600E07BBE3B8043DF20E157012A62
:101FE00084414460A420EAF1058160A6D56663B609
:101FF000AAE08B55772A84414466B420EF850549D1
:1020000060A6D544681EAAF80555692A8441666A07
:102010009C200A45054960A6D544781EAA080555A6
:10202000692A844144029C200A45004820A45501A5
:1020300001FF030101F70333202F20050089300839
:102040000238024978681400000500380168010070
:1020500000175344001613780016131400151020AF
:102060000015201000540A03E181867F3E186D831D
:102070000F0F0E0183866033186DC3198F1803C3C9
:102080008E6033186DE330CF1803C39E603630CDB9
:10209000E360CF3006C79E7E3E30CDB360CF300CBC
:1020A000C6F6603330D9B660CF33CFCCF66061B0BE
:1020B000DB1E60CF30D86CE6C061B0DB1E618F19CB
:1020C000986CC6C063B19B0E330F0FB078C6FF7E0D
:1020D0001F1B061E0F5448554E4445522053484F6F
:1020E0004F540000000000240027002A00000000D8
:1020F00000250028002B00450068010000F6E8DB01
:10210000CFC3B8AEA49B928A827B746E68625C5720
:10211000524E4945413E3A3734312E2C292725234A
:10212000210A0A153A49676E6F7265006D560A0AF0
:10213000504C45415345205455524E204F46462061
:10214000004C4F572042415454455259212000031E
:10215000053F213F1208120A100A0E1C0E0C1E0C1D
:10216000141A14161F161E131E1E1B1E1E1F1E3FA2
:10217000213F3A2F3A173D173F213F181F02040A0B
:10218000041F0E04040E1F0A1F0A0E0E1F04110E58
:102190002E252E2F2A2E262929021F02081F081558
:1021A0000E04040E150E15151B151B040604040C55
:1021B000040000000017000300031F0A1F16371A4F
:1021C0001904130A153A000300000E11110E000A3B
:1021D000040A040E04003000040404001000180473
:1021E000031F111F121F101D151711151F07041FA4
:1021F00017151D1F151D01011F1F151F17151F0086
:102200000A00003200040A110A0A0A110A04011520
:10221000020E11171E051E1F150A0E110A1F110EA0
:102220001F15111F05010E111D1F041F111F11087D
:10223000100F1F041B1F10101F061F1E040F0E116E
:102240000E1F09060E112E1F051A121509011F0176
:102250001F101F0F180F1F0C1F1B041B031C03193B
:102260001513001F11030418111F00020102202082
:10227000200001020C121E1F120C0C12120C121F55
:102280000C1A14041E05242A1E1F021C141D1020E3
:10229000201D1F0814111F101E041E1E021C0C12EC
:1022A0000C3E0A040C123E1E040214160A020F12FF
:1022B0000E101E0E100E1E081E120C1226281E32A4
:1022C0002A26041E21001F00211E040102013F21B5
:1022D0003F172B152010204C4F4144455200172B1F
:1022E00016201314000A4E6F205344206361726459
:1022F000206F720A6E6F204C4F414445522E484564
:10230000580A0A153A45786974001D20466C6173B5
:1023100068696E670A20206C6F616465722E2E2ECC
:102320000A0A444F4E2754205455524E204F4646D9
:1023300021000000000023002600290004040404FA
:10234000040404040202020202020303030303035F
:10235000010204081020408001020408102001023C
:102360000408102000000008000201000003040718
:102370000000000000000000593211241FBECFEF02
:10238000D8E0DEBFCDBF11E0A0E0B1E0E6E9F9E6BC
:1023900002C005900D92A637B107D9F724E0A6E751
:1023A000B1E001C01D92AB3BB207E1F711E1CDEB0B
:1023B000D1E104C02197FE010E94D532CC3BD10768
:1023C000C9F70E9411250C94C9340C940000CF92D7
:1023D000DF92EF92FF920F931F93CF93DF936C01E5
:1023E0007A018B01C0E0D0E0CE15DF0589F0D8017D
:1023F0006D918D01D601ED91FC910190F081E02D60
:10240000C6010995892B11F47E0102C02196ECCFFB
:10241000C701DF91CF911F910F91FF90EF90DF9057
:10242000CF9008950E940534CF93DF9300D000D061
:10243000CDB7DEB7611571058105910579F09B0176
:10244000AC0169833A834B835C830E9458342981B1
:102450003A814B815C810E94663403C060E070E089
:10246000CB010F900F900F900F90DF91CF910895B7
:10247000DC01ED91FC910190F081E02D0994611552
:10248000710579F0FB0101900020E9F73197AF0168
:10249000461B570BDC01ED91FC910280F381E02D8E
:1024A000099480E090E008954F925F926F927F923E
:1024B000EF92FF920F931F93CF93DF93CDB7DEB7C9
:1024C000A1970FB6F894DEBF0FBECDBF7C01FA0115
:1024D000CB0119A2223008F42AE08E010F5D1F4FB4
:1024E000422E512C612C712CBF01A30192010E943C
:1024F0009834F901CA01015011096A3014F4605D81
:1025000001C0695CD8016C93232B242B252B61F728
:10251000B801C7010E943F12A1960FB6F894DEBF22
:102520000FBECDBFDF91CF911F910F91FF90EF9024
:102530007F906F905F904F900895833081F028F4E2
:10254000813099F08230A1F008958730A9F0883069
:10255000B9F08430D1F4809180008F7D03C08091E8
:1025600080008F7780938000089584B58F7702C0B4
:1025700084B58F7D84BD08958091B0008F7703C0AE
:102580008091B0008F7D8093B00008951F93CF930A
:10259000DF93282F30E0F901EC59FC4D8491F901CB
:1025A000E05BFC4DD491F901E45CFC4DC491CC237B
:1025B000C9F0162F81110E949D12EC2FF0E0EE0F52
:1025C000FF1FE351FF4DA591B4918FB7F8941111FE
:1025D00005C09C91ED2FE095E92302C0EC91ED2B15
:1025E000EC938FBFDF91CF911F910895CF93DF932D
:1025F00090E0FC01E05BFC4D2491FC01E45CFC4DAF
:102600008491882361F190E0880F991FFC01ED51BE
:10261000FF4DC591D491FC01E351FF4DA591B491BB
:10262000611109C09FB7F89488812095822388831F
:10263000EC912E230BC0623061F49FB7F89438817F
:10264000822F809583238883EC912E2B2C939FBF20
:1026500006C08FB7F894E8812E2B28838FBFDF91B7
:10266000CF9108951F93CF93DF93182FEB0161E073
:102670000E94F612209711F460E004C0CF3FD1050C
:1026800039F461E0812FDF91CF911F910C94C61234
:10269000E12FF0E0EC59FC4DE491E330F9F048F41F
:1026A000E130B9F0E230A1F584B5806284BDC8BDE7
:1026B00034C0E730E9F0E83019F1E43049F58091B1
:1026C0008000806280938000D0938B00C0938A004A
:1026D00024C084B5806884BDC7BD1FC080918000C0
:1026E000806880938000D0938900C093880015C0D3
:1026F0008091B00080688093B000C093B3000DC09B
:102700008091B00080628093B000C093B40005C097
:10271000C038D1050CF0B5CFAFCFDF91CF911F916D
:1027200008958E3008F08E508770806480937C000E
:1027300080917A00806480937A0080917A0086FD8F
:10274000FCCF809178002091790090E0922B089541
:102750003FB7F8948091270290912802A091290216
:10276000B0912A0226B5A89B05C02F3F19F001960B
:10277000A11DB11D3FBFBA2FA92F982F8827820F07
:10278000911DA11DB11DBC01CD0142E0660F771F57
:10279000881F991F4A95D1F708958F929F92AF9203
:1027A000BF92CF92DF92EF92FF926B017C010E9469
:1027B000A8134B015C01C114D104E104F104F1F050
:1027C0000E94A813DC01CB0188199909AA09BB0949
:1027D000883E9340A105B10570F321E0C21AD108EB
:1027E000E108F10888EE880E83E0981EA11CB11C58
:1027F000C114D104E104F10419F7DDCFFF90EF908B
:10280000DF90CF90BF90AF909F908F9008951F92D0
:102810000F920FB60F9211242F933F938F939F9394
:10282000AF93BF9380912D0290912E02A0912F0221
:10283000B09130023091260223E0230F2D3720F48F
:102840000196A11DB11D05C026E8230F0296A11D0A
:10285000B11D2093260280932D0290932E02A09307
:102860002F02B09330028091270290912802A0910C
:102870002902B0912A020196A11DB11D8093270261
:1028800090932802A0932902B0932A02BF91AF919E
:102890009F918F913F912F910F900FBE0F901F909E
:1028A000189580913104882319F08091330401C078
:1028B00080E08093B40008951F920F920FB60F929C
:1028C00011242F933F934F935F936F937F938F9335
:1028D0009F93AF93BF93EF93FF936091320466236E
:1028E00021F1809125028F5F8093250290912B0228
:1028F0008917D8F09091310481E0892780933104C1
:102900001092250280912C02882369F08091140195
:1029100093E4899F802D1124895B809314010E9488
:10292000A132909333040E945114FF91EF91BF9113
:10293000AF919F918F917F916F915F914F913F9157
:102940002F910F900FBE0F901F9018954F925F928E
:102950006F927F928F929F92AF92BF92CF92DF92AF
:10296000EF92FF920F931F93CF93DF93F901C490DF
:1029700031965491EC0108A164350CF018C10C2C6F
:10298000000CDD08A62F062E000CBB0B7D01EC0C05
:10299000FD1C1E141F040CF00AC140330CF007C1CB
:1029A000A52E842E042E000C9908F401E50FF11DCC
:1029B00057FDFA951E161F060CF0F9C02E5F3F4F0B
:1029C000E6012796D7FD279673E0D595C7957A95AA
:1029D000E1F747FF0AC0A52EA40EC89DA001C99D1E
:1029E000500D1124241B350B40E0EA2D0A2C000C5D
:1029F000FF0BE40FF11D47FDFA95F1971CF050E332
:102A0000A52EA41A67FD60E0F701E535F10514F085
:102A1000E4E5F0E07E2FFC01D484D426862F062E38
:102A2000000C990BFC01EA1BFB0BDF017F01F7E0B7
:102A3000EF22FF24E0E8F0E002C0F595E795EA9484
:102A4000E2F71E2FB7FD179653E0B595A7955A9557
:102A5000E1F72A0F3B1FE42FE77051E001C0550F4B
:102A6000EA95EAF7459545954595B4E54B02800D05
:102A7000911D11248F5C9D4FC12C0A2C000CBB08AA
:102A8000992493942E015524EC2DF0E0EA15FB05D2
:102A90000CF08DC0F90144910130E1F47C01A12FCB
:102AA000862E881AB82DBE0DB71708F077C0B42F40
:102AB000BA2321F0E701B881B52BB883B0E0B59512
:102AC000A795109719F431964491A0E8DFEFED1A1D
:102AD000FD0AE8CF01111FC0752E70947C01A12F53
:102AE000F901862E881AB82DBE0DB71708F056C00A
:102AF000B42FBA2321F0E701B881B721B883B0E041
:102B0000B595A795109719F431964491A0E8DFEF99
:102B1000ED1AFD0AE8CF033031F07C01A12FF90155
:102B2000862E881A37C0752E7094862E7C01A12FB0
:102B3000F9018716D8F4B42FBA2359F0E701B88108
:102B4000682C6D2460FE02C0B52B02C0B721E701DE
:102B5000B883B0E0B595A795109719F431964491D4
:102B6000A0E88394DFEFED1AFD0AE3CFD92416C065
:102B7000B42FBA2321F0E701B881B527B883B0E0BC
:102B8000B595A795109719F431964491A0E8DFEF19
:102B9000ED1AFD0AB82DBE0DB71750F3550F19F4F5
:102BA0008C5A9F4F51E0C394240D351D6DCFDF919A
:102BB000CF911F910F91FF90EF90DF90CF90BF903A
:102BC000AF909F908F907F906F905F904F900895FF
:102BD000FC01643508F053C0403308F050C090A1A8
:102BE000742F759575957595262F062E000C330B51
:102BF000542F57709230A1F4F901EF5CFD4F84E53A
:102C00007802E00DF11D1124808190E0052E02C0B4
:102C1000959587950A94E2F78095982F91700AC050
:102C2000933041F484858170462740954170841328
:102C300003C014C0911112C084E57802200D311D2B
:102C40001124F901EF5CFD4F81E090E001C0880F95
:102C50005A95EAF780959081892310C084E578021F
:102C6000200D311D1124F901EF5CFD4F81E090E052
:102C700001C0880F5A95EAF79081892B80830895C7
:102C8000DF92EF92FF920F931F93CF93DF931F92E8
:102C9000CDB7DEB78C01D62EF42EE12CE21654F41B
:102CA0006E2D6D0D4F2DC80129830E94E815E39408
:102CB0002981F4CF0F90DF91CF911F910F91FF9059
:102CC000EF90DF900895DF92EF92FF920F931F93A2
:102CD000CF93DF937C01D62FD22EC42F002E000C71
:102CE000110B040F111D47FD1A954C2F0C2E000CD3
:102CF000550B4017510744F42D2D4C2F6D2FC70154
:102D00000E944016CF5FF1CFDF91CF911F910F91BD
:102D1000FF90EF90DF9008956F927F928F929F9235
:102D2000AF92BF92CF92DF92EF92FF920F931F93D9
:102D3000CF93DF93EC016A3019F42D819885A1C0FF
:102D40006D3009F4A4C01885BA84D98488A083E5BD
:102D50008D150CF47FC08FE28B150CF47BC08C8139
:102D600090E00197189F9001199F300D1124C9011F
:102D70008D0D911DD7FC9A95181619060CF06AC096
:102D80008D81819FC00111248B0D911DB7FC9A95F7
:102D9000181619060CF05EC09D2CCD2CE62EF12CD9
:102DA000EC2DED190E2E000CFF0B8C8190E0E81736
:102DB000F9070CF04EC00197E817F90779F0E89E83
:102DC0009001E99E300DF89E300D1124E20FF31FA3
:102DD0008E8D9F8DE80FF91F749001C0712C6B2CA4
:102DE000AB2C2A2D2B19022E000C330B8D8190E079
:102DF000281739075CF570FE10C0113031F44A2DE8
:102E00006C2DCE010E94E8151DC0012F212F462DEB
:102E1000692DCE010E94631615C089A198A189175A
:102E200089F088A3113031F44A2D6C2DCE010E9417
:102E3000E81507C0012F212F462D692DCE010E94D4
:102E4000631688A27694A394610ECBCFC394910E9F
:102E5000A7CF88A228853C818985329F800D1124C7
:102E600089879F81992399F0082E000C990B44E5DE
:102E700050E0239F401951091124481759073CF489
:102E80009D818A85299F800D11248A87198681E07A
:102E900090E0DF91CF911F910F91FF90EF90DF9025
:102EA000CF90BF90AF909F908F907F906F9008953C
:102EB000DF92EF92FF920F931F93CF93DF931F92B6
:102EC000CDB7DEB78C01D62EF42EE12CE21654F4E9
:102ED0004E2D4F0D6D2DC80129830E94E815E394F6
:102EE0002981F4CF0F90DF91CF911F910F91FF9027
:102EF000EF90DF9008958F929F92AF92BF92DF92F2
:102F0000EF92FF920F931F93CF93DF9382E380930F
:102F1000B30481E090E0A0E0B0E08093AF04909330
:102F2000B004A093B104B093B2048FEF8093A404D3
:102F3000E0E8F7E7259134912130304C09F049C0A1
:102F4000E6E9F7E7E491E0938D04E7E9F7E7E49138
:102F5000E0933804E8E9F7E7E491E0933904E9E91C
:102F6000F7E78591949190933B0480933A04EBE9C1
:102F7000F7E78591949190933D0480933C0487E01A
:102F800080935F04EEE9F7E7E491E0935E04EFE9F4
:102F9000F7E7E491E093A404E0EAF7E785919491E0
:102FA0009093510480935004E2EAF7E7859194915D
:102FB0009093530480935204E4EAF7E78591949147
:102FC0009093550480935404E6EAF7E78591949131
:102FD0002CC09CE390938D041092380480933904A4
:102FE00080E293E090933B0480933A0484ED93E075
:102FF00090933D0480933C0487E080935F0480932A
:103000005E048CEA9DE090935104809350048EED11
:103010009DE0909353048093520484E79EE0909344
:103020005504809354048CE39FE09093570480935D
:103030005604C1E0C09334046FEF70E085E00E9455
:10304000321388E080933E0489E080933F0487E058
:103050008093400486E080934104D4E0D0934204FE
:1030600082E08093430481E1809344040E94FF2125
:103070008CE39FE090934F0480934E04D0934D04D3
:10308000C09358048BE0809390048DE080938F046C
:1030900080E1809391048EE0809393048FE080938D
:1030A0009204C0938A04C093A2041092A304C09314
:1030B0008904EFE4F1E2E491EF5FE0938604E0E558
:1030C000F1E2E491EF5FE093870481E591E2909370
:1030D000A1048093A004CFB7F894809122028111BB
:1030E00027C0E6E4F3E28491EAE5F3E29491E82F65
:1030F000F0E0EE0FFF1FED51FF4DA591B491EC9163
:10310000E92321F461E08AE00E94C61261E08AE0CE
:103110000E94F6128CB580618CBD8CB580648CBD2C
:1031200061E08DE00E94F61261E08BE00E94F612F1
:10313000809122028F5F80932202CFBF8CB58F7D5A
:103140008CBD8CB58C7F81608CBD8DB581608DBD53
:103150008CB58C608CBD61E0809190040E94F61269
:1031600061E080918F040E94F61261E080919104E9
:103170000E94F6128091930418161CF461E00E94DC
:10318000F6128091920418161CF461E00E94F61267
:1031900080919304181674F460E00E94C6126AE0ED
:1031A00070E080E090E00E94CD1361E08091930494
:1031B0000E94C61280918F04082E000C990BFC010E
:1031C000E45CFC4DE491F0E0EE0FFF1FE351FF4D96
:1031D000259134913093970420939604FC01E05B91
:1031E000FC4DE491E0939D0480919004082E000C26
:1031F000990BFC01E45CFC4DE491F0E0EE0FFF1F45
:10320000E351FF4D2591349130939504209394041C
:10321000FC01E05BFC4DE491E0939C0480919204FE
:10322000082E000C990BFC01E45CFC4DE491F0E0ED
:10323000EE0FFF1FE351FF4D259134913093990418
:1032400020939804FC01E05BFC4DE491E0939E0424
:1032500080919104082E000C990BFC01E45CFC4D5C
:10326000E491F0E0EE0FFF1FE351FF4D2591349103
:1032700030939B0420939A04FC01E05BFC4DE491A5
:10328000E0939F0481E20E94532284E10E94532232
:1032900080918D0487FF03C08FE780938D04809118
:1032A0008D0480680E94532280E20E9453228CE0A9
:1032B0000E9453220E947222C1E0C0935D0484E008
:1032C0008093810487E390E290936904809368047B
:1032D00060E080E00E94822361E070E083E00E9471
:1032E00032138091B100887F81608093B100F8949F
:1032F000109280001092810010928500109284003C
:1033000088E191E09093890080938800809181000A
:10331000886080938100809181008160809381002A
:1033200080916F00826080936F0078940E94D42413
:1033300080914A04813019F410925E041CC080917F
:103340004D048823C9F380E00E94E8218BE390E2DA
:10335000909367048093660410926C0410926B043F
:10336000C0935A0489E080936F0410927204109203
:103370007404109276048091A404882309F4DAC0BE
:1033800081E080938A04109289041092880410923C
:103390004C048093A2048093A304C5EDD0E28CE09A
:1033A000F82E07EF10E2EE24E39499E0D92E0E9464
:1033B000061B8823E1F3FE01849125E630E240E01C
:1033C00060E082E894E00E94A61410928B04F092D0
:1033D0008C0485ED90E20E94B22280918604982FA1
:1033E000990F890F81958D5A80938B048091870462
:1033F000982F990F890F8195835D80938C0480911C
:10340000A50484FF03C081E690E202C08DE590E24E
:103410000E94D32280918604982F990F890F81955D
:103420008D5A80938B0480918C048F5F80938C04E1
:1034300080915E04882319F089E590E202C085E559
:1034400090E20E94D32280918604982F990F890FD1
:1034500081958D5A80938B0480918C048F5F80932B
:103460008C0481E590E20E94D32280914A0481304D
:1034700039F580915E048F5F60915F0487FD09C01C
:10348000082E000C990B70E06F5F7F4F0E94AD32E9
:10349000682F60935E0480E00E94E8211093670427
:1034A0000093660410926C0410926B04E0925A042C
:1034B000D0926F04109272041092740410927604E9
:1034C000809149048130B9F08091A404482F50E0E4
:1034D00060E070E08090A5049090A604A090A704FE
:1034E000B090A80484169506A606B70608F486C010
:1034F0008F3F09F483C08FEF8093A40480E00E9483
:10350000E82180E00E94E82189E490E2909367043A
:103510008093660410926C0410926B0481E0809397
:103520005A0489E080936F0410927204109274041C
:103530001092760410924C0410927701109276014A
:1035400010929B0110929A0183E090E090930F01FA
:1035500080930E0110927F0110927E0110928301E0
:10356000109282011092970110929601109293018D
:103570001092920110928F0110928E011092990177
:103580001092980110927D0110927C011092850199
:103590001092840184E690E09093030180930201ED
:1035A00010927B0110927A011092790110927801A9
:1035B000909307018093060110928101109280017F
:1035C00010922402109223026CE370E080E090E0FD
:1035D0000E94141270938B0160938A0110928701EC
:1035E00010928601DF91CF911F910F91FF90EF9084
:1035F000DF90BF90AF909F908F90089580914B0483
:10360000813009F0D4CE0E94E322D1CE4F925F9256
:103610006F927F928F929F92AF92BF92CF92DF92E2
:10362000EF92FF920F931F93CF93DF9300D000D0C0
:103630001F92CDB7DEB74091B4045091B5046091AC
:10364000B6047091B7042FB7F89480912D02909131
:103650002E02A0912F02B09130022FBF481B590BB0
:103660006A0B7B0B8091B30490E0A0E0B0E0009186
:10367000AF041091B0042091B1043091B2048417CA
:103680009507A607B70730F4011511052105310587
:1036900009F036C3012B022B032B09F02FC38091B5
:1036A0004B0481508E3FC0F580914A048130C9F5AA
:1036B00080915E048F5F60915F0487FD09C0082ED2
:1036C000000C990B70E06F5F7F4F0E94AD32682F46
:1036D00060935E048EED92E29093B9048093B804F7
:1036E00088E48093BA0480E00E94E82187EF90E2AA
:1036F000909367048093660410926C0410926B049C
:1037000081E080935A0489E080936F0410927204E0
:10371000109274041092760480914B0481508E3F75
:1037200070F480914904813009F096C381ED92E2F2
:103730009093B9048093B80488E48093BA0480E03D
:103740000E94182380915A04882309F4ABC0809109
:103750006E048111A7C08091660490916704E09186
:103760006B04F0916C04EE0FFF1FE80FF91F4591F9
:10377000549141155105F1F420916A04222331F04E
:1037800010926C0410926B04FC0112C010925A0447
:1037900080915904882341F080E00E941823E09131
:1037A0006B04F0916C042DC080E00E94D3217AC09C
:1037B000459154919A01369527953695279540FF66
:1037C00051C0CA0116E0969587951A95E1F78F7159
:1037D000952F96959695969590512F70223071F170
:1037E000F8F4211117C08B3008F08AE080936F0441
:1037F000E0916B04F0916C043196F0936C04E093CB
:103800006B04EE0FFF1F8091660490916704E80F30
:10381000F91FCECF213061F760E00E948223E8CF0C
:103820002330B1F0243021F720915D04829F802D58
:1038300011248093760490937704DACF20915D046D
:10384000829F802D11248093720490937304D0CFB3
:1038500020915D04829F802D1124809374049093A5
:103860007504C6CF2F7320936D0480915D04859FEE
:10387000802D112480936E0410927E0410927D049A
:1038800010927C0481E08093700480933104109244
:10389000710480916B0490916C04019690936C0478
:1038A00080936B0480917004882309F4EEC08091AA
:1038B0006E04811103C00E94D321E7C08150809320
:1038C0006E0480917E04811146C020917C04309169
:1038D0007D042F5F3F4FC901880F991FE091780445
:1038E000F0917904E80FF91F65917491862F877024
:1038F00080937F04AB01E3E056954795EA95E1F7A5
:10390000CA0196958795972F9695969590938004E2
:103910008F7390915D04899F802D112480937E0484
:10392000417040932C0230937D0420937C0480915D
:103930007A0490E02817390770F020917B04222345
:1039400039F0821B910990937D0480937C0403C01D
:1039500080E00E94D32180917E04815080937E0478
:103960008091710421E0280F2093710440916D042F
:1039700030918004340F80916504380F30935B04DC
:1039800060917404662371F070E0822F022E000CA7
:10399000990B0E94AD3280917504869F300D1124E1
:1039A00030935B0480915B0490E0849664E270E065
:1039B0000E94AD3280935B0430916F0430935C04BD
:1039C00060917204662381F0062E000C770B822F23
:1039D000022E000C990B0E94AD3280917304869FD9
:1039E000300D112430935C04609176046623A1F0BD
:1039F000822F220F990B70E00E94AD32CB0162E062
:103A000070E00E94AD322091770490915C04289F71
:103A1000900D112490935C0480915C044F3341F02D
:103A20008A300CF089E087FD80E080935C0402C05E
:103A300010925C04F894E0915B04F0E0E350FF4DD9
:103A4000E491E0932B0230915C04209181043203D5
:103A50009001112440917F044203C001439F900DC7
:103A6000112400905E0402C0880F991F0A94E2F7A7
:103A700097FF02C081589F4F880F892F881F990B8D
:103A8000809332048093330478948091BA0488231D
:103A900009F486C08C3020F49CE0E92EE81A01C0BD
:103AA000E12CFF24F394F0928A041092A204109265
:103AB000A304309187044DE2D42E1D2D131B1E0D3F
:103AC00003E0030F2EE4412F63E082E894E03D839E
:103AD0000E9463163D810CEF030F1D5F202F41E014
:103AE000612F80E50E943B24202F42E0612F83E07C
:103AF0000E943B24F092A204F092A3040091870458
:103B0000FD2CF01AFE0C2EE44F2D63E082E894E0C9
:103B10000E94401613E0100F1F0D4FEF410F2EE4CF
:103B200063E082E894E00E944016035033E0F30E15
:103B3000202F4F2D60E082E894E00E945817202F3C
:103B40004F2D63E582E894E00E94581741E06F2D05
:103B500083E00E94BD2342E06F2D80E50E94BD23DB
:103B6000145044E0612F80E50E94BD2348E0612F9E
:103B700083E00E94BD2384E080938B0480918704BE
:103B8000E81A8E2D815D80938C048091B804909109
:103B9000B9040E94B2228091BA0481508093BA0481
:103BA0008091500490915104892B09F47FC011E059
:103BB0001093A2041092A3049091860485E5891BBA
:103BC00080938B0410928C0460914D04613009F451
:103BD0004EC030F080914C04653008F060C05BC08E
:103BE00080E00E94E82110938A04EFE4F1E2E4917E
:103BF000EF5FE0938604E0E5F1E2E491EF5FE093AC
:103C0000870481E591E29093A1048093A00410922F
:103C10005104109250041092880418EA0E94061B66
:103C20008823E1F381E491E20E94B22240914E04A4
:103C300050914F0460E070E02AE082E894E00E9436
:103C400054128CE291E20E94B222612F62956F7051
:103C500070E082E894E00E949E2481E291E20E945A
:103C6000B22280914904813009F0FCC01FC08091CC
:103C7000A5049091A604A091A704B091A8048F7008
:103C80009927AA27BB270897A105B10510F467E07B
:103C900009C068E707C0882349F06B5F03C0882329
:103CA00029F06FE282E894E00E9438120E947222AA
:103CB0008091880481110EC088EF91E0E1E3F2E089
:103CC000DF019C011D9221503040E1F710928B04DE
:103CD00010928C040E94A8136093AF047093B004F8
:103CE0008093B1049093B2042091AB043091AC0462
:103CF000621B730B7093AA046093A90480E0CCC08C
:103D00002FB7F89480912D0290912E02A0912F024E
:103D1000B09130022FBF2091B304820F911DA11DDD
:103D2000B11D8093B4049093B504A093B604B093EE
:103D3000B7048091A5049091A604A091A704B09126
:103D4000A8040196A11DB11D8093A5049093A6041B
:103D5000A093A704B093A8041092AF041092B004EB
:103D60001092B1041092B2040E94A8136093AB04A5
:103D70007093AC048093AD049093AE0480913504AD
:103D8000909136042FE0289F8001299F100D112467
:103D900085E10E949113800F911F24E096958795ED
:103DA0002A95E1F7909336048093350420913404EA
:103DB000222309F44BC060913804262F30E040E004
:103DC00050E029833A834B835C83C0903904D12C23
:103DD000E12CF12C40913C0450913D044A01A12C6E
:103DE000B12C20913A0430913B042901612C712CB3
:103DF0008217930728F09C014817590708F49A0185
:103E0000C901A0E0B0E09C01AD01241935094609C3
:103E1000570969817A818B819C816C197D098E0992
:103E20009F090E949132A501940124193509460980
:103E300057090E946634C20ED31EE41EF51EC092BE
:103E400037046C2D70E085E00E9432130E94FF2140
:103E50000E94D42481E020C0893209F070CC0E94F5
:103E6000E3226DCC115009F0D9CE60E070E085E01E
:103E70000E94321383B7817F846083BF83B78160E0
:103E800083BF83B7816083BF889583B78E7F83BFED
:103E900083B78E7F83BFC2CE0F900F900F900F908D
:103EA0000F90DF91CF911F910F91FF90EF90DF90D6
:103EB000CF90BF90AF909F908F907F906F905F90CA
:103EC0004F900895CF92DF92EF92FF920F931F933E
:103ED000CF93DF93C82FD62F142F422F022E000C22
:103EE000550B461B510967FD539557FF03C051956C
:103EF00041955109812F012E000C990B8C1B9109C2
:103F0000C7FD939597FF03C0919581959109DD2495
:103F1000D3948417950714F0D12C06C0812F122F4B
:103F2000282F8C2FCD2FD82F1C1734F48D2FD22F64
:103F3000282F8C2FC12F182FE12EEC1A822F022E42
:103F4000000C990B8D1B9109D7FD939597FF03C02A
:103F5000919581959109F82E0E2DE7FE02C001E0A2
:103F60000E0D0595D2171CF0CC24CA9411C0CC2498
:103F7000C3940EC0DD2079F04C2F6D2F82E894E0C1
:103F80000E94E8150F1907FF02C0DC0D0E0DCF5F70
:103F90001C1784F703C04D2F6C2FF0CFDF91CF910A
:103FA0001F910F91FF90EF90DF90CF9008952F9287
:103FB0003F924F925F926F927F928F929F92AF92B9
:103FC000BF92CF92DF92EF92FF920F931F93CF9306
:103FD000DF93CDB7DEB729970FB6F894DEBF0FBEDB
:103FE000CDBF282E6987F42E322E261754F4E616FC
:103FF0000CF0E3C03E2CE62E2987F02E022D242E55
:1040000008C0E21674F4832D3E2CE82E8F2DF02E7E
:10401000082F398533162CF43986332E822D2F2C18
:10402000F82E39853E112FC0F21434F0822D2F1452
:104030000CF48F2DF22C282E0F1524F020160CF4E2
:10404000202E0F2D21E0220D201B4985602F82E8B4
:1040500094E029960FB6F894DEBF0FBECDBFDF9176
:10406000CF911F910F91FF90EF90DF90CF90BF9075
:10407000AF909F908F907F906F905F904F903F9008
:104080002F900C944016822D022C000C990B2F2D92
:104090000F2C000C330BA901481B590B5C834B837D
:1040A000832C032C000C99085985A52E550FBB08AD
:1040B000F401EA19FB09FE83ED83002E000C110BBD
:1040C0006801C81AD90A8E2D0E2C000C990BAC0170
:1040D0004A195B095A834983021B130BFC01E81937
:1040E000F909F887EF833E103A94412C512C612C4A
:1040F000712C398533162CF1C3016D817E810E94AC
:10410000AD32322D360FC20169817A810E94AD3203
:10411000222D260F4B815C81640E751E4C0C5D1C9C
:1041200023171CF4832F322F282F2F5F231B498541
:10413000632F82E894E00E94401639853F5F3987FB
:10414000D8CF832F330F990B9C0128193909029F6F
:104150004001039F900C129F900C11248A199B0917
:10416000C89E5001C99EB00CD89EB00C1124398550
:10417000E31644F1C4016F8178850E94AD323F2D72
:10418000360FC50169817A810E94AD32222D260F3A
:10419000800E911EAC0CBD1C23171CF4832F322FF4
:1041A000282F2F5F231B4985632F82E894E00E940C
:1041B000401639853F5F3987DACF39842987F22C59
:1041C000242E2FCF29960FB6F894DEBF0FBECDBF99
:1041D000DF91CF911F910F91FF90EF90DF90CF90E3
:1041E000BF90AF909F908F907F906F905F904F9017
:1041F0003F902F9008954F925F926F927F928F928F
:104200009F92AF92BF92CF92DF92EF92FF920F9365
:104210001F93CF93DF93FA01A490B12C3196A49110
:10422000F701B4913196E4913C016A0C7B1C261590
:104230003705A4F46901CB0ED11C8C159D0574F4CF
:10424000B0E04B018A0E9B1E081519053CF4E801ED
:10425000CE0FD11DFE016C177D0714F080E092C0D7
:10426000821793070CF08BC02901481A590A60176E
:10427000710724F4E801C61BD70B02C0C0E0D0E0F0
:104280006C147D041CF05601A81AB90A8E169F06FC
:104290001CF0DF01A61BB70B1C2FC0E8D0E0782E66
:1042A000721A862E801A612F70E06A177B07B4F6A7
:1042B000042DC82CC10ED12C802F90E08A159B05AF
:1042C0000CF059C0FA012491FC0133E0F595E79513
:1042D0003A95E1F7329630E0295F3F4F83E035951C
:1042E00027958A95E1F7629FC001639F900D729FA9
:1042F000900D1124E80FF91FE40FF51FE491F0E091
:10430000802F87709E0102C0359527958A95E2F728
:10431000E223F323EF2B69F1F7012491972C900E00
:10432000E92DF0E083E0F595E7958A95E1F732967F
:1043300030E0295F3F4F93E0359527959A95E1F757
:10434000C29EC001C39E900DD29E900D1124E80F15
:10435000F91FEE0DFF1DE491F0E0892D87709E019D
:1043600002C0359527958A95E2F7E223F323EF2BD8
:1043700021F40F5FA1CF1F5F96CF81E003C0412CD6
:10438000512C75CFDF91CF911F910F91FF90EF903E
:10439000DF90CF90BF90AF909F908F907F906F9065
:1043A0005F904F900895811112C010927004109286
:1043B0006E0410927D0410927C041092710410928D
:1043C000330410923204109231040C945114089565
:1043D000811114C01092700410926E0410927D042A
:1043E00010927C04109271041092330410923204E3
:1043F000109231040E94511410925A040895CF92E1
:10440000DF92EF92FF920F931F93CF93DF93CEE350
:10441000D4E005E414E0FF24FA9497E0E92EE00EDE
:1044200062E088810E94F612288130E0F901EC599F
:10443000FC4D8491F901E05BFC4DC490F901E45C12
:10444000FC4DD490DD2071F081110E949D12ED2D64
:10445000F0E0EE0FFF1FEE5CFC4DA591B491EC91E6
:10446000EC21B1F4F80180818F5F808360E0888166
:104470000E94F61221960F5F1F4FE012D1CFDF91FD
:10448000CF911F910F91FF90EF90DF90CF90089503
:10449000F8018081882371F3F8018F3F11F41082B5
:1044A000E5CFF082E3CFCF93C82FF89460E08091FE
:1044B00091040E94C6128091920418161CF460E0C8
:1044C0000E94C612CEBD00000DB407FEFDCF8EB512
:1044D0008091920418161CF461E00E94C612789430
:1044E000CF9108950F931F93CF9380918E048F5F88
:1044F00080938E0401E312E0C0E08C2F80640E9460
:10450000532280E80E94532261E0809191040E942E
:10451000C6128091920418161CF460E00E94C61224
:1045200080E090E0F801E80FF91F20812EBD000027
:104530000DB407FEFDCF2EB501968435910591F798
:104540008091920418161CF461E00E94C612CF5F9D
:104550000C5A1F4FC63089F680E4CF911F910F91FE
:104560000C9453220F931F93CF93DF938C01C0E0E1
:10457000D0E0F801EC0FFD1F6491662371F0E0912B
:104580008204F09183040190F081E02D82E894E0B0
:104590000995892B11F02196ECCFCE01DF91CF91B7
:1045A0001F910F910895CF93DF930E94B222EC01E7
:1045B0006FE571E082E894E00E943F128C0F9D1F2E
:1045C000DF91CF91089588EF91E0E1E3F2E0DF0120
:1045D0009C011D9221503040E1F710928B04109203
:1045E0008C048AE093E20E94B2220E9472228CB56F
:1045F00083608CBD8DB58E7F8DBD8EE691E0EEEF34
:10460000FFE309951092880485EE92E20E94D3227E
:104610000E9472220E94FF2180914904813039F06A
:1046200062E370E080E090E00E94CD13F3CF089544
:10463000AF92BF92CF92DF92EF92FF920F931F93B0
:10464000CF93DF93C82ED12CE601CC5CDB4F9DA12C
:10465000992309F44CC07E019FEFE91AF90AF7018A
:1046600095A1911144C09EA58601000F111F0C5CFD
:104670001B4FF80134A525A5E32FF22FE90FF11DFB
:10468000E90FF11D259134912F3FFFEF3F0711F402
:104690001DA22DC039ABF601EE0FFF1FE25CFB4FF0
:1046A0003327220F331F05A0F6A1E02DE20FF31FE1
:1046B000A590B490811117C00E94E821F801B3AA17
:1046C000A2AAF601EE0FFF1FEA5BFB4F16A215A28E
:1046D00081E0F70185A389E08BAF1EAEFE017B96DA
:1046E00015A2329615A229968DA18F5F8DA3DF9119
:1046F000CF911F910F91FF90EF90DF90CF90BF90DF
:10470000AF90089570E0DB01AA0FBB1FAC5CBB4FFC
:10471000D4962C91D497D5969C91D597E22FF92FCA
:10472000E80FF11DE80FF11D259134915F969696E3
:104730003C932E939597F9018591949190915D0406
:10474000989F802D11246C5C7B4FFB01B19685A353
:10475000F901A591B4914B2F50E0E82FF0E04E17EE
:104760005F0720F4F90125913491832FFB01B29664
:10477000899F802D112485A30895AF92BF92CF9277
:10478000DF92EF92FF920F931F93CF93DF93182F37
:10479000062FC1E0D3E08AEFD82E9EEFE92E842FBA
:1047A0008470C82E842F8270B82E842F8870A82E13
:1047B0004170F42E8C2F880F8F5FE80ECC2081F093
:1047C0004D2F400F6C2F610F82E894E00E94E81596
:1047D0004C2F400F6D2F610F82E894E00E94E81586
:1047E000BB2081F0402F4D1B6C2F610F82E894E0BD
:1047F0000E94E815402F4C1B6D2F610F82E894E05A
:104800000E94E815AA2081F04C2F400F612F6D1BEC
:1048100082E894E00E94E8154D2F400F612F6C1B39
:1048200082E894E00E94E815FF2081F0402F4C1BA5
:10483000612F6D1B82E894E00E94E815402F4D1B0C
:10484000612F6C1B82E894E00E94E815CD1744F4B8
:10485000E7FC04C0D150D394D394ED0CCF5FAACF22
:10486000DF91CF911F910F91FF90EF90DF90CF904C
:10487000BF90AF9008959F92AF92BF92CF92DF9278
:10488000EF92FF920F931F93CF93DF93F82EE62EB4
:10489000B22E03E0020FD0E0C3E08AEFC82E1EEF75
:1048A000842F8170982EAA24A394A20E4270D42E35
:1048B000DF5F802F8B19180F9920A1F02C2F220F6A
:1048C0002A0D4E2D4C1B6D2F6F0D82E894E00E9437
:1048D0005817202F4E2D4D1B6C2F6F0D82E894E042
:1048E0000E945817DD20A1F02C2F220F2A0D4E2DEB
:1048F0004C1B6F2D6D1B82E894E00E945817202FEF
:104900004E2D4D1B6F2D6C1B82E894E00E945817B2
:10491000DC1744F417FD04C0C150C394C3941C0DAC
:104920000E5FC6CFDF91CF911F910F91FF90EF9057
:10493000DF90CF90BF90AF909F900895CF92DF927D
:10494000EF92FF920F931F93CF93DF936B01770F3B
:10495000EE08FF08F7FE1BC0EC016DE20E94381262
:104960008C0144275527BA014C195D096E097F094E
:104970002AE0CE010E945412800F911FDF91CF9147
:104980001F910F91FF90EF90DF90CF9008952AE054
:10499000B701A601DF91CF911F910F91FF90EF908A
:1049A000DF90CF900C945412809150049091510458
:1049B000892BB1F1809158048F7169F584E10E94CF
:1049C0009113BC01990F880B990B0E940C3326EEB2
:1049D0003FE34EEC50E40E9470330E94DB329B01B7
:1049E00070934F0460934E04672B91F084E08093A2
:1049F0004D04E0E5F4E080E0419151912417350742
:104A000018F480934D0408958F5F8430A9F703C094
:104A10008FEF80934D04809158048F5F80935804EA
:104A20000895CF93DF9300D000D000D0CDB7DEB78C
:104A3000789484B5826084BD84B5816084BD85B579
:104A4000826085BD85B5816085BD80916E00816085
:104A500080936E001092810080918100826080932B
:104A6000810080918100816080938100809180002D
:104A70008160809380008091B10084608093B10058
:104A80008091B00081608093B00080917A00846052
:104A900080937A0080917A00826080937A0080917E
:104AA0007A00816080937A0080917A008068809398
:104AB0007A001092C1000E947B1722242394312C8B
:104AC0000E94061B882311F40C94E33180914B045F
:104AD000813011F40C94ED31F09012012F2D44E54A
:104AE0006F2D80E00E94621F809020029090210232
:104AF00060901E0270901F0242E7481920E36F2D5C
:104B000084E586190E94621FE6EF5E2E5F0CC0905E
:104B10001C02D0901D022FEB3FE1452D6C2D82E849
:104B200094E00E94A61422EE2F0D80911A0290911B
:104B30001B0265E070E00E94AD32E22EE60EA0900E
:104B40001802B0901902C5016AE070E00E94AD320F
:104B5000462E24E93EE14E2D82E894E00E94A61400
:104B60005FE05F0D009116021091170224E23EE112
:104B7000452F602F82E894E05B830E94A61423E215
:104B8000F20E60911402709115027A83698324E217
:104B90003EE14F2D698182E894E00E94A61468E509
:104BA0006C0D2FEB3FE1452D82E894E00E94A614A6
:104BB00068E5640D24E93EE14E2D82E894E00E9410
:104BC000A61468E5600F24E23EE15B81452F82E890
:104BD00094E00E94A6146981685A24E23EE14F2DB8
:104BE00082E894E00E94A61471E0A71AB10880E957
:104BF000A8168CEFB8062CF0B0921902A0921802F9
:104C000004C01092190210921802C30101969093E9
:104C10001F0280931E0292E0890E911C9092210245
:104C200080922002E1E0CE1AD108F8EACF16FFEF19
:104C3000DF062CF0D0921D02C0921C0204C010921C
:104C40001D0210921C0202501109083A2FEF1207A0
:104C50002CF0109317020093160204C01092170252
:104C60001092160229813A8124503109283A4FEFD7
:104C700034072CF0309315022093140204C01092D4
:104C800015021092140287E690E08619970997FFA3
:104C900008C010921F0210921E0210922102109260
:104CA00020021092A2041092A30407E024E540E041
:104CB00060E082E894E00E94631611E01093A20481
:104CC0001093A3042AE13EE141E064E182E894E02C
:104CD0000E94A61410938B0410928C04C0909A0129
:104CE000D0909B010D2C000CEE08FF08F7FE0EC0C3
:104CF0006DE282E894E00E94381244275527BA01F9
:104D00004C195D096E097F092AE003C02AE0B7014A
:104D1000A60182E894E00E9454126FE571E082E8F7
:104D200094E00E943F121092A2041092A30403E0A8
:104D300024E142E062E282E894E00E94631611E01E
:104D40001093A2041093A30424E142E062E282E8FB
:104D500094E00E94401624E144E062E282E894E09C
:104D60000E94401623E042E062E282E894E00E9462
:104D7000581723E042E065E382E894E00E94581768
:104D800023E04091100163E082E20E94621FE09103
:104D90000E01F0910F01EE0FFF1FE15BFE4F20812E
:104DA000318141E06AE382E894E00E94A614809198
:104DB000980190919901019709F031C18091960174
:104DC000909197010B976CF51092A2041092A30496
:104DD0009091120180911202890F57E1F52EF80E81
:104DE000E0900E0280911002E80E09E021E14F2DC3
:104DF0006E2D82E894E00E9463161093A204109333
:104E0000A304E0919401F0919501EE0FFF1FEB5B7D
:104E1000FE4F208131814F2D6E2D82E894E00E945B
:104E2000A61480919201909193010B979CF510929A
:104E3000A2041092A3049091120180910C02890F98
:104E400017E1180F9091100280910802890F90EEDF
:104E5000980F80910A02F92EF81A09E021E1412FFA
:104E60006F2D82E894E00E94631681E08093A20493
:104E70008093A304E0919001F0919101EE0FFF1F48
:104E8000EB5BFE4F20813181412F6F2D82E894E052
:104E90000E94A61480918E0190918F010B979CF532
:104EA0001092A2041092A304909112018091060224
:104EB000890F17E1180F9091100280910202890F5B
:104EC0009FEB980F80910402F92EF81A09E021E176
:104ED000412F6F2D82E894E00E94631681E0809359
:104EE000A2048093A304E0918C01F0918D01EE0F58
:104EF000FF1FEB5BFE4F20813181412F6F2D82E838
:104F000094E00E94A61480911002909111028D3AB3
:104F100091050CF47BC08EEE9FEF9093110280936D
:104F2000100268E070E080E090E00E941412DC0162
:104F3000CB010497A109B109909313028093120247
:104F400068E070E080E090E00E941412DC01CB0188
:104F50000497A109B10990930D0280930C0268E0B7
:104F600070E080E090E00E941412DC01CB01049715
:104F7000A109B109909307028093060264E070E0F2
:104F800080E090E00E941412709395016093940168
:104F900064E070E080E090E00E9414127093910150
:104FA0006093900164E070E080E090E00E94141251
:104FB00070938D0160938C0110920F0210920E027B
:104FC000109209021092080210920302109202023B
:104FD00063E170E080E090E00E941412DC01CB01FC
:104FE0000196A11DB11D90930B0280930A0263E10B
:104FF00070E080E090E00E941412DC01CB01019689
:10500000A11DB11D909305028093040280911002AE
:1050100090911102019690931102809310021092C8
:10502000A2041092A30410910C01E0900A0144E044
:10503000410F61E06E0D05E02EE082E894E00E94F1
:105040006316FF24F394F092A204F092A304E0917B
:105050000002F0910102EE0FFF1FE15CFE4F208184
:105060003181412F6E2D82E894E00E94A614809138
:10507000980190919901892B09F004C18091FE015A
:105080009091FF01892B61F51092A2041092A30464
:105090005091FC0180918A01581B1091FA0143E361
:1050A000450F65E5610F25E082E894E05B830E948F
:1050B0006316F092A204F092A304E091F801F0913B
:1050C000F901EE0FFF1FE75CFE4F208131815B810C
:1050D00040E3450F64E5610F82E894E00E94A61466
:1050E0008091F6019091F701892B91F51092A2041D
:1050F0001092A304809188011091FC0190918A0183
:10510000191B181B5091FA01580F43E3410F65E535
:10511000650F05E025E082E894E05B830E9463165A
:1051200081E08093A2048093A304E091F801F091C0
:10513000F901EE0FFF1FE75CFE4F2081318140E354
:10514000410F5B8164E5650F82E894E00E94A6143C
:105150002091FA013091FB01215031093093FB017C
:105160002093FA014091FC015091FD0180910801CA
:1051700090910901840F951F9093FD018093FC018C
:1051800040918A0150918B0160E370E0641B750BC4
:10519000860F971F813391053CF08FEF9FEF90931F
:1051A00009018093080106C00A9724F4309209018E
:1051B000209208012D393F4FCCF51092FB0110923F
:1051C000FA016EE170E080E090E00E941412DC01D0
:1051D000CB014496A11DB11D90938B0180938A0150
:1051E00068E070E080E090E00E941412DC01CB01E6
:1051F0000796A11DB11D90938901809388018FEFBF
:105200009FEF90930901809308018091860190910E
:105210008701019690938701809386011092F70190
:105220001092F6011092FF011092FE01809184010C
:105230009091850101969093850180938401089750
:105240006CF08091F8019091F90101969093F90129
:105250008093F80110928501109284018091F801E9
:105260009091F901039724F01092F9011092F8013E
:105270008091860190918701069721F430929901DF
:1052800020929801209198013091990122303105A6
:1052900009F083C08091060190910701019797FD65
:1052A00005C090930701809306010AC01092070180
:1052B000109206018AE090E090930501809304012A
:1052C00080918401909185018530910554F0209161
:1052D000F4013091F5012F5F3F4F3093F50120939A
:1052E000F4014091F4015091F501209104013091B5
:1052F00005014217530721F41092F5011092F401B1
:105300000196863091052CF4909385018093840159
:1053100004C01092850110928401809182019091C5
:105320008301C2970CF000C11092A2041092A30452
:10533000109112015091060141EF410F6FE3650F8B
:105340000AE229E182E894E05B830E9463166CE143
:10535000610F5B8107E5050F2DEF210F40E4450F3D
:10536000E62E81E3850F0E94D71F81E08093A2047F
:105370008093A304E091F401F091F501EE0FFF1F7B
:10538000EB5DFE4F208131814CEE410F5B81652F3B
:1053900082E894E00E94A614C7C02130310509F0CC
:1053A000C3C0809002019090030180910001909110
:1053B0000101880E991E909203018092020197FECE
:1053C00019C010920101109200018091800190910A
:1053D000810101969093810180938001853691052A
:1053E000BCF03093010120930001109281011092D2
:1053F00080010EC094E68916910454F08FEF9FEF60
:1054000090930101809300011092F3011092F20138
:1054100080917E0190917F01C2970CF074C0109230
:10542000A2041092A304E0901201F09013014AEF3D
:105430004E0D0AE122E16CE3680D82E894E00E94DF
:10544000631642E04E0D02E02EE16EE2680D82E846
:1054500094E00E946316A6EFBA2EBE0C04E023E08F
:105460004B2D61E4680D82E894E00E94631681E0B0
:105470008093A2048093A304C090F001D090F10126
:105480000091F2011091F301F601EE0FFF1FE15EB2
:10549000FE4F2081318168E2600F680D4B2D82E85C
:1054A00094E00E94A61497FE17C0C114D104A1F481
:1054B0003092EF012092EE01E8E28E0E911C080D71
:1054C000191D1093EB010093EA01F2E0EF0EF11CBD
:1054D000F092ED01E092EC0180917C0190917D01D0
:1054E000059739F42FEFC21AD20AD092F101C09277
:1054F000F0018091F0019091F101039721F4109255
:10550000F1011092F00180917C0190917D01019652
:10551000863091052CF490937D0180937C0104C02A
:1055200010927D0110927C011092010210920002F3
:105530008091470481508E3F60F480910A019091E0
:105540000B01843491052CF4019690930B01809308
:105550000A018091450481508E3F60F480910A01D8
:1055600090910B01181619062CF4019790930B01DA
:1055700080930A018091480481508E3F08F431C71E
:105580008091460481508E3FF0F580910C019091FE
:105590000D0187309105BCF1019790930D01809327
:1055A0000C01309201022092000280911201909130
:1055B00013010196909313018093120180911A02B6
:1055C00090911B02019690931B0280931A02809186
:1055D000EC019091ED0101969093ED018093EC0127
:1055E000ECEAF1E080E090E0228133812F5F3F4FD1
:1055F00033832283019636968A309105A9F79093DA
:10560000E9018093E8018091490481508E3FE8F5DB
:1056100000910C0110910D01E0900A01F0900B0136
:1056200042E0400F60E16E0D2EE03EE182E894E042
:105630000E94A61420E030E080E090E0AC018A30C7
:10564000910509F410C7F901E455FE4F6481758195
:1056500001962A5F3F4F672B89F75093E9014093EA
:10566000E80126E0249FC001259F900D1124FC0134
:10567000E455FE4F50E1E50EF11CF182E0820C5F33
:105680001F4F138302833582248280914A04815004
:105690008E3F78F48091100190911101019685332D
:1056A00091050CF4E5C665E370E070931101609319
:1056B000100180911001909111018533910521F421
:1056C0003092AB012092AA012091AA013091AB0146
:1056D0002130310509F045C082970CF442C064E6E0
:1056E00070E080E090E00E9414127093A901609332
:1056F000A80163337105FCF08091100190911101B4
:1057000082977CF110910C011A5F00910A01005FF1
:1057100020E044E5612F802F0E94621F20E344E5D2
:1057200060E084E50E94621F212F402F60E384E542
:105730000E94621F16C06233710599F080911001BA
:105740009091110182976CF060910C016A5F8091D9
:105750000A01F0E3EF2E04E520E044E5805F0E94BB
:10576000D71F8091AA019091AB010197A9F4809174
:1057700010019091110101979093110180931001F4
:10578000829754F41092AB011092AA0182E290E049
:1057900090931101809310011092E9011092E80199
:1057A000E6E0BE2E11E08090E8019090E9014AE029
:1057B000841691040CF04BC0B89CC001B99C900DAC
:1057C0001124FC01E455FE4F7F01848195810197EE
:1057D00011F51092A2041092A304A280C080D1807F
:1057E00062E06C0D03E025E04A2D82E894E00E941F
:1057F00063161093A2041093A30429E03EE14A2DFE
:105800006C2D82E894E00E94A614F3E0CF0ED11C28
:10581000F701D182C082B89CF001B99CF00D11242F
:10582000E455FE4F808191818535910544F01582C4
:10583000148228ED3FEF31832083338322833FEFAF
:10584000831A930A9092E9018092E801ACCF80918B
:10585000EE019091EF01019751F51092A204109280
:10586000A3041091EC01E090EA01F090EB014EEFFF
:10587000410F6BEF6E0D03E026E082E894E00E949A
:10588000631681E08093A2048093A3044DEF410F3F
:105890006AEF6E0D2DEF3DE182E894E00E94A614C0
:1058A00054E0E51AF108F092EB01E092EA01609110
:1058B000EA017091EB017A836983663F7F4F24F49C
:1058C0001092EF011092EE011092E9011092E8019E
:1058D00076E0572EC090E801D090E9012AE0C21688
:1058E000D1040CF07FC08091FE019091FF01892BC3
:1058F00009F070C080908A0190908B016090FC014B
:105900007090FD01A090FA01B090FB01E091F801C8
:10591000F091F901EE0FFF1FE75CFE4FE080F18090
:1059200000E310E008191909060D171D95012C5AFE
:105930003F4F5C9CC0015D9C900D1124FC01E4551F
:10594000FE4FFD83EC836281738149E05EE18081DB
:1059500091810E94FB20882351F1EC81FD81158209
:10596000148224EF3DE14281608182E894E00E944C
:10597000A614EC81FD811182108213821282309272
:10598000FF012092FE0140E3460D481964E56A0DCF
:1059900024EF3DE182E894E00E94A61480919A01F0
:1059A00090919B01059690939B0180939A01809121
:1059B000A6019091A701459724F01092A70110929B
:1059C000A6018091A6019091A70101969093A7014D
:1059D0008093A601FFEFCF1ADF0AD092E901C092AF
:1059E000E80178CF1092E9011092E80156E0552EB7
:1059F000C090E801D090E9014AE0C416D1040CF04F
:105A00008EC08091F6019091F701892B09F07FC03B
:105A100080908A0190908B016090FC017090FD0154
:105A20008091880190918901A090FA01B090FB01CA
:105A3000E091F801F091F901EE0FFF1FE75CFE4FD6
:105A4000E080F18000E310E008191909060D171D28
:105A5000081B190B95012C5A3F4F280F391F5C9CCE
:105A6000C0015D9C900D1124AC0144555E4F5D83D7
:105A70004C83FA016281738149E05EE1808191810A
:105A80000E94FB20882381F1EC81FD811582148224
:105A900024EF3DE14281608182E894E00E94A614F7
:105AA000EC81FD8111821082138212823092F70103
:105AB0002092F60124E630E030938901209388019A
:105AC0004CEC460D481968EB6A0D24EF3DE182E885
:105AD00094E00E94A61480919A0190919B010596F2
